{
  "_format": "hh-sol-artifact-1",
  "contractName": "CoinFlip",
  "sourceName": "contracts/CoinFlip.sol",
  "abi": [
    {
      "inputs": [],
      "stateMutability": "nonpayable",
      "type": "constructor"
    },
    {
      "anonymous": false,
      "inputs": [
        {
          "indexed": false,
          "internalType": "address",
          "name": "player",
          "type": "address"
        },
        {
          "indexed": false,
          "internalType": "uint256",
          "name": "amount",
          "type": "uint256"
        },
        {
          "indexed": false,
          "internalType": "bool",
          "name": "choice",
          "type": "bool"
        },
        {
          "indexed": false,
          "internalType": "bool",
          "name": "result",
          "type": "bool"
        }
      ],
      "name": "CoinFlipped",
      "type": "event"
    },
    {
      "inputs": [],
      "name": "MINIMUM_BET",
      "outputs": [
        {
          "internalType": "uint256",
          "name": "",
          "type": "uint256"
        }
      ],
      "stateMutability": "view",
      "type": "function"
    },
    {
      "inputs": [],
      "name": "addFunds",
      "outputs": [],
      "stateMutability": "payable",
      "type": "function"
    },
    {
      "inputs": [
        {
          "internalType": "bool",
          "name": "_choice",
          "type": "bool"
        }
      ],
      "name": "flip",
      "outputs": [],
      "stateMutability": "payable",
      "type": "function"
    },
    {
      "inputs": [],
      "name": "getContractBalance",
      "outputs": [
        {
          "internalType": "uint256",
          "name": "",
          "type": "uint256"
        }
      ],
      "stateMutability": "view",
      "type": "function"
    },
    {
      "inputs": [],
      "name": "owner",
      "outputs": [
        {
          "internalType": "address",
          "name": "",
          "type": "address"
        }
      ],
      "stateMutability": "view",
      "type": "function"
    },
    {
      "inputs": [],
      "name": "withdrawBalance",
      "outputs": [],
      "stateMutability": "nonpayable",
      "type": "function"
    },
    {
      "stateMutability": "payable",
      "type": "receive"
    }
  ],
  "bytecode": "0x608060405234801561001057600080fd5b50336000806101000a81548173ffffffffffffffffffffffffffffffffffffffff021916908373ffffffffffffffffffffffffffffffffffffffff160217905550610bfe806100606000396000f3fe6080604052600436106100595760003560e01c80631d263f67146100655780635fd8c710146100815780636f9fb98a146100985780638da5cb5b146100c3578063935aae40146100ee578063a26759cb1461011957610060565b3661006057005b600080fd5b61007f600480360381019061007a91906105bb565b610123565b005b34801561008d57600080fd5b506100966102d5565b005b3480156100a457600080fd5b506100ad61047c565b6040516100ba91906108a6565b60405180910390f35b3480156100cf57600080fd5b506100d8610484565b6040516100e59190610786565b60405180910390f35b3480156100fa57600080fd5b506101036104a8565b60405161011091906108a6565b60405180910390f35b6101216104b3565b005b66038d7ea4c6800034101561016d576040517f08c379a000000000000000000000000000000000000000000000000000000000815260040161016490610826565b60405180910390fd5b60023461017a91906108dd565b4710156101bc576040517f08c379a00000000000000000000000000000000000000000000000000000000081526004016101b3906107e6565b60405180910390fd5b60006101c6610543565b905081151581151514156102945760006002346101e391906108dd565b905060003373ffffffffffffffffffffffffffffffffffffffff168260405161020b90610734565b60006040518083038185875af1925050503d8060008114610248576040519150601f19603f3d011682016040523d82523d6000602084013e61024d565b606091505b5050905080610291576040517f08c379a000000000000000000000000000000000000000000000000000000000815260040161028890610806565b60405180910390fd5b50505b7f41115ffb7788074ab433d2988ea8968a7ef3c7e7531363d7b96b98b08b9537fb333484846040516102c994939291906107a1565b60405180910390a15050565b60008054906101000a900473ffffffffffffffffffffffffffffffffffffffff1673ffffffffffffffffffffffffffffffffffffffff163373ffffffffffffffffffffffffffffffffffffffff1614610363576040517f08c379a000000000000000000000000000000000000000000000000000000000815260040161035a90610866565b60405180910390fd5b6000479050600081116103ab576040517f08c379a00000000000000000000000000000000000000000000000000000000081526004016103a290610846565b60405180910390fd5b60008060009054906101000a900473ffffffffffffffffffffffffffffffffffffffff1673ffffffffffffffffffffffffffffffffffffffff16826040516103f290610734565b60006040518083038185875af1925050503d806000811461042f576040519150601f19603f3d011682016040523d82523d6000602084013e610434565b606091505b5050905080610478576040517f08c379a000000000000000000000000000000000000000000000000000000000815260040161046f90610806565b60405180910390fd5b5050565b600047905090565b60008054906101000a900473ffffffffffffffffffffffffffffffffffffffff1681565b66038d7ea4c6800081565b60008054906101000a900473ffffffffffffffffffffffffffffffffffffffff1673ffffffffffffffffffffffffffffffffffffffff163373ffffffffffffffffffffffffffffffffffffffff1614610541576040517f08c379a000000000000000000000000000000000000000000000000000000000815260040161053890610886565b60405180910390fd5b565b6000806064423360015460405160200161055f93929190610749565b6040516020818303038152906040528051906020012060001c61058291906109f6565b9050600160008154809291906105979061097f565b91905055506032811091505090565b6000813590506105b581610bb1565b92915050565b6000602082840312156105cd57600080fd5b60006105db848285016105a6565b91505092915050565b6105ed81610937565b82525050565b6106046105ff82610937565b6109c8565b82525050565b61061381610949565b82525050565b60006106266024836108cc565b915061063182610a92565b604082019050919050565b60006106496014836108cc565b915061065482610ae1565b602082019050919050565b600061066c601e836108cc565b915061067782610b0a565b602082019050919050565b600061068f6016836108cc565b915061069a82610b33565b602082019050919050565b60006106b26000836108c1565b91506106bd82610b5c565b600082019050919050565b60006106d5601b836108cc565b91506106e082610b5f565b602082019050919050565b60006106f8601c836108cc565b915061070382610b88565b602082019050919050565b61071781610975565b82525050565b61072e61072982610975565b6109ec565b82525050565b600061073f826106a5565b9150819050919050565b6000610755828661071d565b60208201915061076582856105f3565b601482019150610775828461071d565b602082019150819050949350505050565b600060208201905061079b60008301846105e4565b92915050565b60006080820190506107b660008301876105e4565b6107c3602083018661070e565b6107d0604083018561060a565b6107dd606083018461060a565b95945050505050565b600060208201905081810360008301526107ff81610619565b9050919050565b6000602082019050818103600083015261081f8161063c565b9050919050565b6000602082019050818103600083015261083f8161065f565b9050919050565b6000602082019050818103600083015261085f81610682565b9050919050565b6000602082019050818103600083015261087f816106c8565b9050919050565b6000602082019050818103600083015261089f816106eb565b9050919050565b60006020820190506108bb600083018461070e565b92915050565b600081905092915050565b600082825260208201905092915050565b60006108e882610975565b91506108f383610975565b9250817fffffffffffffffffffffffffffffffffffffffffffffffffffffffffffffffff048311821515161561092c5761092b610a27565b5b828202905092915050565b600061094282610955565b9050919050565b60008115159050919050565b600073ffffffffffffffffffffffffffffffffffffffff82169050919050565b6000819050919050565b600061098a82610975565b91507fffffffffffffffffffffffffffffffffffffffffffffffffffffffffffffffff8214156109bd576109bc610a27565b5b600182019050919050565b60006109d3826109da565b9050919050565b60006109e582610a85565b9050919050565b6000819050919050565b6000610a0182610975565b9150610a0c83610975565b925082610a1c57610a1b610a56565b5b828206905092915050565b7f4e487b7100000000000000000000000000000000000000000000000000000000600052601160045260246000fd5b7f4e487b7100000000000000000000000000000000000000000000000000000000600052601260045260246000fd5b60008160601b9050919050565b7f436f6e747261637420646f65736e2774206861766520656e6f7567682062616c60008201527f616e636500000000000000000000000000000000000000000000000000000000602082015250565b7f4661696c656420746f2073656e64204574686572000000000000000000000000600082015250565b7f426574206d757374206265206174206c6561737420302e303031204554480000600082015250565b7f4e6f2062616c616e636520746f20776974686472617700000000000000000000600082015250565b50565b7f4f6e6c7920746865206f776e65722063616e2077697468647261770000000000600082015250565b7f4f6e6c7920746865206f776e65722063616e206164642066756e647300000000600082015250565b610bba81610949565b8114610bc557600080fd5b5056fea26469706673582212208f1e6d4229ab4d0379b4afd10fc4a154069022df2ecf7bb3065f230140580d1564736f6c63430008040033",
  "linkReferences": {},
  "deployedLinkReferences": {}
}